:020000040800F2
:100000000028002025120008910F0008970F000813
:100010009D0F0008A30F0008A90F000800000000B2
:10002000000000000000000000000000AF0F00080A
:10003000BB0F000800000000C70F0008D30F000826
:100040006D1200086D1200086D1200086D12000894
:100050006D1200086D1200086D1200086D12000884
:100060006D1200086D1200086D1200086D12000874
:100070006D1200086D1200086D1200086D12000864
:100080006D1200086D1200086D1200086D12000854
:100090006D1200086D1200086D1200086D12000844
:1000A0006D1200086D1200086D1200086D12000834
:1000B000E10F00086D120008000000006D1200083A
:1000C0006D12000800000000000000006D12000822
:1000D000000000006D1200086D1200080000000012
:1000E0006D1200086D1200086D120008000000007B
:1000F0000000000000000000000000000000000000
:0C01000000000000000000005FF808F1A3
:10010C0010B5054C237833B9044B13B10448AFF345
:10011C0000800123237010BD680000200000000047
:10012C009C28000808B5034B1BB103490348AFF3E7
:10013C00008008BD000000006C0000209C28000816
:10014C0080B500AF034B1B68184600F033FD00BFB1
:10015C0080BD00BF0000002080B400AF114B002216
:10016C001A70114B1B680F4A53600E4B02229A6097
:10017C000C4B0422DA600B4B08221A610B4B022247
:10018C001A70094B9B68094A5360084B10229A60FD
:10019C00064B2022DA60054B40221A6100BFBD4697
:1001AC0080BC7047D400002004000020E800002030
:1001BC0080B483B000AF78607B685B68012B05DD91
:1001CC007B685B685A1E7B685A6022E07B681B78F0
:1001DC00022B16D0022B1CDC002B02D0012B08D0DA
:1001EC0017E07B6802221A700C4B9A687B685A6085
:1001FC000FE07B6800221A70084B1A687B685A6003
:10020C0007E07B6801221A70044B5A687B685A60BD
:10021C0000BF0C37BD4680BC704700BF04000020F7
:10022C0080B582B000AF78607B681B78022B38D029
:10023C00022B4FDC002B02D0012B19D04AE07B683B
:10024C009B689BB201221946244801F00CFB7B6889
:10025C00DB689BB200221946204801F004FB7B6846
:10026C001B699BB2002219461C4801F0FCFA31E0D4
:10027C007B689B689BB200221946184801F0F3FA80
:10028C007B68DB689BB201221946144801F0EBFA3B
:10029C007B681B699BB200221946104801F0E3FAF7
:1002AC0018E07B689B689BB2002219460B4801F052
:1002BC00DAFA7B68DB689BB200221946074801F02A
:1002CC00D2FA7B681B699BB201221946034801F0E4
:1002DC00CAFA00BF00BF0837BD4680BD0008014008
:1002EC0080B584B000AF786039603B68092B1FDCA7
:1002FC00114A3B6813441B78FB720023FB6013E02C
:10030C007A68FB6802FA03F399B2FA7AFB6842FA4C
:10031C0003F3DBB203F00103DBB21A46074801F02A
:10032C00A2FAFB680133FB60FB68062BE8DD00E0FA
:10033C0000BF1037BD4680BD1C000020000C0140E2
:10034C0080B582B000AF786001224FF4C0711148C3
:10035C0001F089FA7B68002B0BD10F4B1B681946F7
:10036C000120FFF7BDFF002280210A4801F07BFA33
:10037C000BE0094B5B6819460120FFF7B1FF002227
:10038C004FF48071034801F06EFA00BF0837BD4688
:10039C0080BD00BF00080140A000002080B582B0E5
:1003AC0000AF786001224FF4C061114801F05BFA94
:1003BC007B68002B0CD10F4B1B6819468020FFF774
:1003CC008FFF00224FF40071094801F04CFA0BE04A
:1003DC00084B5B6819468020FFF782FF00224FF420
:1003EC008061034801F03FFA00BF0837BD4680BD6D
:1003FC0000080140A800002080B483B000AF7860F2
:10040C007B680D4A82FB03129210DB17D31A0B4A3E
:10041C0013607968084B83FB01239A10CB17D21A0F
:10042C0013469B0013445B00CA1A044B5A6000BF6E
:10043C000C37BD4680BC704767666666A00000201E
:10044C0080B483B000AF78607B680D4A82FB0312E6
:10045C009210DB17D31A0B4A13607968084B83FB95
:10046C0001239A10CB17D21A13469B0013445B003E
:10047C00CA1A044B5A6000BF0C37BD4680BC70478B
:10048C0067666666A800002080B500AF00227E215A
:10049C00054801F0E8F901224FF4F061024801F03F
:1004AC00E2F900BF80BD00BF0008014080B582B0FA
:1004BC0000AF78603A4B1B78022B3DD0022B6ADCE4
:1004CC00002B02D0012B0AD065E0012000F03EFB8E
:1004DC000346002B5AD0324B01221A7056E00120F1
:1004EC0000F034FB0346002B1CD12D4B00221A705C
:1004FC002C4A7B6852F823305A1C2A497B6841F8F5
:10050C002320284A7B6852F82330632B04DD254ACC
:10051C007B68012142F82310234A7B68002142F8B2
:10052C00231035E0012000F02BFB0346002B2FD0CD
:10053C001B4B02221A702BE0012000F007FB034634
:10054C00002B02D1164B00221A70184B1B68012B82
:10055C0020D1144A7B6852F823305A1C11497B680D
:10056C0041F823200F4A7B6852F82330632B04DDBB
:10057C000C4A7B68012142F823100B4A7B6800214E
:10058C0042F82310642000F09DFD03E000BF02E060
:10059C0000BF00E000BF00BF0837BD4680BD00BFF4
:1005AC009100002084000020100000205800002042
:1005BC0080B582B000AF78601E4B1B78002B02D048
:1005CC00012B0AD02BE0022000F0C0FA0346002BCE
:1005DC0029D0184B01221A7025E0022000F0B6FA3F
:1005EC000346002B21D1144A7B6852F82330002B90
:1005FC0004D1114A7B68012142F823100E4A7B6812
:10060C0052F823200D497B6841F823200C4A7B6863
:10061C00012142F82310074B00221A7005E0054B0C
:10062C0000221A7002E000BF00E000BF00BF0837D4
:10063C00BD4680BD920000208400002004000020F4
:10064C001000002080B500AF134B1B68012B7BD131
:10065C00124B1B68012B04D0FFF77EFD0F4B0122C0
:10066C001A600F4B1B68012B45D10E48FFF7D8FDC4
:10067C000D48FFF7D5FD0B4B5B681846FFF7BCFE2A
:10068C00094B5B68092B13DC084B00221A60064BE4
:10069C005B68064A536024E00000002094000020B0
:1006AC0048000020D4000020E8000020A800002012
:1006BC00A34B5B68A34A82FB03129210DB17D31A7D
:1006CC00A14A13609E4B59689E4B83FB01239A10E1
:1006DC00CB17D21A13469B0013445B00CA1A9A4BD1
:1006EC005A609A48FFF764FD9548FFF761FD4FF497
:1006FC007A7000F07FFC964B1B68012B24D1954B34
:10070C001B681846FFF71CFE934B1B681846FFF737
:10071C0045FE904B1B6801338E4A13608E4B1B6851
:10072C0001338D4A13608B4B1B68012B02DD894B07
:10073C0000221A60884B1B68012B02DD864B0022BD
:10074C001A60962000F070FC844B1B68022B5CD165
:10075C00834B1B68012B03D0824B1B68012B0FD1E1
:10076C007F4B00221A607D4B1B687E4A13607E4BC8
:10077C001B687E4A13607E4B00221A60FFF784FED2
:10078C007C4B1B68012B07D112217B4801F083F8AD
:10079C004FF4FA7000F062FC704B1B681846FFF7C0
:1007AC002BFE764B1B68012B29D16A4B1B68184614
:1007BC00FFF7C6FD674B1B680133664A1360654B38
:1007CC001B68012B02DD634B00221A60674B1B6810
:1007DC001846FFF735FE604B1B681846FFF7DEFD29
:1007EC005D4B1B6801335C4A13605B4B1B68012B30
:1007FC0002DD594B00221A60C82000F049FC002091
:10080C00FFF754FE0020FFF7D3FE544B1B68032B5D
:10081C005CD1534B1B68012B03D0524B1B68022B32
:10082C000FD14F4B00221A604C4B1B684D4A136082
:10083C004D4B5B684D4A53604D4B00225A60FFF79D
:10084C0023FE4C4B1B68012B07D124214A4801F095
:10085C0022F84FF4FA7000F001FC404B1B6818466C
:10086C00FFF7CAFD454B1B68012B29D1394B1B687F
:10087C001846FFF765FD374B1B680133354A13608B
:10088C00344B1B68012B02DD324B00221A60374BB4
:10089C005B681846FFF7D4FD2F4B1B681846FFF713
:1008AC007DFD2D4B1B6801332B4A13602A4B1B68B3
:1008BC00012B02DD284B00221A60C82000F0E8FB57
:1008CC000120FFF7F3FD0120FFF772FE234B1B689D
:1008DC00042B7DD1224B1B68012B03D0214B1B68B1
:1008EC00032B0FD11E4B00221A601C4B1B681D4A98
:1008FC0013601D4B9B681D4A9360FFF7C5FD1C4B95
:10090C0000229A601B4B1B68012B07D148211A4807
:10091C0000F0C1FF4FF4FA7000F0A0FB0F4B1B6806
:10092C001846FFF769FD154B1B68012B4AD1094B83
:10093C001B681846FFF704FD064B1B6801331FE0CC
:10094C00E800002067666666A8000020D40000203E
:10095C004C000020980000209C000020000000208B
:10096C0094000020FC0000200400002084000020E3
:10097C00100000205000002000080140540000200E
:10098C00144A1360134B1B68012B02DD114B002220
:10099C001A60114B9B681846FFF752FD0F4B1B68F2
:1009AC001846FFF7FBFC0D4B1B6801330B4A136019
:1009BC000A4B1B68012B02DD084B00221A60C82071
:1009CC0000F066FB0220FFF771FD0220FFF7F0FD3F
:1009DC0000BF80BD98000020840000209C000020F7
:1009EC0080B500AF1D4B1B78002B02D0012B0AD019
:1009FC0027E0002000F0AAF80346002B25D0174B67
:100A0C0001221A7021E0002000F0A0F80346002B10
:100A1C001DD1134B1B680133114A1360104B1B681B
:100A2C00013B104A13600E4B1B68042B05DD0C4B6D
:100A3C0001221A600B4B04221A60084B00221A7018
:100A4C0005E0064B00221A7002E000BF00E000BF78
:100A5C00FFF776FBFFF7F6FD00BF80BD900000208E
:100A6C0000000020FC00002080B582B000AF002305
:100A7C007B6055E02E4A7B68134419782D4A7B68BD
:100A8C0013440A461A702C4A7B6852F823309BB2E6
:100A9C0019462A4800F0D0FE03461946244A7B68C2
:100AAC0013440A461A70224A7B6813441A78214967
:100ABC007B680B441B789A4208D11D4A7B6813440F
:100ACC0019781F4A7B6813440A461A701C4A7B68C3
:100ADC0013441B78002B16D11A4A7B6832F813305A
:100AEC00632B0AD8174A7B6832F81330013399B25A
:100AFC00144A7B6822F813100FE0134A7B681344E6
:100B0C0001221A7009E00F4A7B68002122F81310A9
:100B1C000D4A7B68134400221A707B6801337B609A
:100B2C007B68022BA6DD00BF00BF0837BD4680BD29
:100B3C002C00002030000020340000200008014070
:100B4C0028000020B4000020B000002080B483B046
:100B5C0000AF0346FB71FB79022B01D9002307E0A0
:100B6C00FB79064AD35C002B0CBF01230023DBB2BC
:100B7C0018460C37BD4680BC704700BF28000020CB
:100B8C0080B483B000AF0346FB71FB79022B01D913
:100B9C00FF2307E0FB79064AD35C012B0CBF012332
:100BAC000023DBB218460C37BD4680BC704700BF33
:100BBC00B000002080B582B000AF78607B68013B4C
:100BCC00032B6FD801A252F823F000BFE90B0008E9
:100BDC001B0C00084D0C00087F0C000800224FF481
:100BEC008041394800F03FFE01224FF40041364865
:100BFC0000F039FE01224FF48041344800F033FEFE
:100C0C0001224FF40041314800F02DFE57E0012243
:100C1C004FF480412C4800F026FE00224FF4004196
:100C2C00294800F020FE01224FF48041274800F0B3
:100C3C001AFE01224FF40041244800F014FE3EE05D
:100C4C0001224FF48041204800F00DFE01224FF4A8
:100C5C0000411D4800F007FE00224FF480411B4864
:100C6C0000F001FE01224FF40041184800F0FBFD9A
:100C7C0025E001224FF48041134800F0F4FD0122DD
:100C8C004FF40041104800F0EEFD01224FF480417A
:100C9C000E4800F0E8FD00224FF400410B4800F034
:100CAC00E2FD0CE000224FF44041074800F0DBFD70
:100CBC0000224FF44041054800F0D5FD00BF00BFB5
:100CCC000837BD4680BD00BF00080140000C014044
:100CDC0080B500AF00F0C6FA00F00CF800F092F806
:100CEC0000F044F8024801F01BFAFFF779FEFCE72C
:100CFC000001002080B590B000AF07F11803282246
:100D0C000021184601F0BCFD3B1D00221A605A6000
:100D1C009A60DA601A610223BB610123BB62102363
:100D2C00FB6200237B6307F11803184600F0CCFD2F
:100D3C000346002B01D000F0C9F80F237B60002381
:100D4C00BB600023FB6000233B6100237B613B1DE8
:100D5C000021184601F038F80346002B01D000F0B2
:100D6C00B5F800BF4037BD4680BD000080B586B0E9
:100D7C0000AF07F1080300221A605A609A60DA602B
:100D8C003B4600221A605A601D4B4FF080421A609D
:100D9C001B4B41F63F725A60194B00229A60184B5C
:100DAC000922DA60164B00221A61154B00229A6157
:100DBC00134801F065F90346002B01D000F086F8CA
:100DCC004FF48053BB6007F1080319460C4801F03F
:100DDC00E3FA0346002B01D000F078F800233B60C7
:100DEC0000237B603B461946054801F0BBFC0346DB
:100DFC00002B01D000F06AF800BF1837BD4680BD4B
:100E0C000001002080B586B000AF07F10803002276
:100E1C001A605A609A60DA60294B9B69284A43F041
:100E2C0004039361264B9B6903F004037B607B688E
:100E3C00234B9B69224A43F008039361204B9B6927
:100E4C0003F008033B603B6800224CF2FE711D4826
:100E5C0000F009FD4CF2FE73BB600123FB60002324
:100E6C003B6102237B6107F108031946154800F02A
:100E7C0069FB4FF46053BB600023FB6001233B61B3
:100E8C0007F1080319460F4800F05CFB00224FF6EF
:100E9C00FF710D4800F0E7FC4FF6FF73BB600123B8
:100EAC00FB6000233B6102237B6107F108031946B9
:100EBC00054800F047FB00BF1837BD4680BD00BF9A
:100ECC000010024000080140000C014080B400AF4B
:100EDC0072B600BFFEE7000080B485B000AF154BC2
:100EEC009B69144A43F001039361124B9B6903F015
:100EFC000103BB60BB680F4BDB690E4A43F08053A8
:100F0C00D3610C4BDB6903F080537B607B680A4B2D
:100F1C005B68FB60FB6823F0E063FB60FB6843F0FD
:100F2C008063FB60044AFB68536000BF1437BD4606
:100F3C0080BC7047001002400000014080B584B0B6
:100F4C0000AF78607B681B68B3F1804F13D10C4BFA
:100F5C00DB690B4A43F00103D361094BDB6903F0F6
:100F6C000103FB60FB68002200211C2000F0B3FA97
:100F7C001C2000F0CCFA00BF1037BD4680BD00BF6E
:100F8C000010024080B400AFFEE780B400AFFEE773
:100F9C0080B400AFFEE780B400AFFEE780B400AFD2
:100FAC00FEE780B400AF00BFBD4680BC704780B484
:100FBC0000AF00BFBD4680BC704780B400AF00BF1F
:100FCC00BD4680BC704780B500AF00F091F900BF02
:100FDC0080BD000080B500AF024801F0EDF800BF05
:100FEC0080BD00BF0001002080B400AF00BFBD4633
:100FFC0080BC704780B483B000AF7860074B1B682F
:10100C007A6892FBF3F3064A1360064B00221A60CF
:10101C0000BF0C37BD4680BC704700BF44000020A9
:10102C00BC0000204800002080B483B000AF786082
:10103C00074B1B687A6892FBF3F3064A1360064B66
:10104C0000221A6000BF0C37BD4680BC704700BF41
:10105C0044000020C00000204C00002080B483B06D
:10106C0000AF7860074B1B687A6892FBF3F3064A73
:10107C001360064B00221A6000BF0C37BD4680BCC3
:10108C00704700BF44000020C40000205000002026
:10109C0080B483B000AF7860074B1B687A6892FB12
:1010AC00F3F3064A1360064B00221A6000BF0C379C
:1010BC00BD4680BC704700BF44000020C800002023
:1010CC005400002080B483B000AF7860074B1B68DD
:1010DC007A6892FBF3F3064A1360064B00221A60FF
:1010EC0000BF0C37BD4680BC704700BF44000020D9
:1010FC00CC0000205800002080B400AF314B1B689E
:10110C00002B0BDD2F4B1B68013B2E4A13602D4B24
:10111C001B68002B02D12C4B01221A602B4B1B6835
:10112C00002B0BDD294B1B68013B284A1360274B16
:10113C001B68002B02D1264B01221A60254B1B6821
:10114C00002B0BDD234B1B68013B224A1360214B08
:10115C001B68002B02D1204B01221A601F4B1B680D
:10116C00002B0BDD1D4B1B68013B1C4A13601B4BFA
:10117C001B68002B02D11A4B01221A60194B1B68F9
:10118C00002B0BDD174B1B68013B164A1360154BEC
:10119C001B68002B02D1144B01221A60134B1B68E5
:1011AC00002B0BDD114B1B68013B104A13600F4BDE
:1011BC001B68002B02D10E4B01221A6000BFBD46EA
:1011CC0080BC7047BC00002048000020C0000020FC
:1011DC004C000020C400002050000020C80000205B
:1011EC0054000020CC00002058000020D00000202B
:1011FC005C00002080B582B000AF78607B681B6813
:10120C00B3F1804F03D1FFF72FFCFFF775FF00BF41
:10121C000837BD4680BD0000FFF7E6FE0B480C49C1
:10122C000C4A002302E0D458C4500433C4188C4236
:10123C00F9D3094A094C002301E013600432A2429D
:10124C00FBD301F0F9FAFFF743FD704700000020D3
:10125C0068000020E0280008680000204C010020F5
:10126C00FEE7000080B500AF084B1B68074A43F04F
:10127C0010031360032000F023F90F2000F008F88E
:10128C00FFF72AFE0023184680BD00BF0020024055
:10129C0080B582B000AF7860124B1A68124B1B7885
:1012AC0019464FF47A73B3FBF1F3B2FBF3F3184620
:1012BC0000F03BF90346002B01D001230EE07B68C4
:1012CC000F2B0AD8002279684FF0FF3000F003F999
:1012DC00064A7B681360002300E001231846083798
:1012EC00BD4680BD4000002064000020600000204E
:1012FC0080B400AF054B1B781A46054B1B68134492
:10130C00034A136000BFBD4680BC704764000020D8
:10131C004801002080B400AF024B1B681846BD4644
:10132C0080BC70474801002080B485B000AF786065
:10133C007B6803F00703FB600C4BDB68BB60BA688F
:10134C004FF6FF031340BB60FB681A02BB681343E4
:10135C0043F0BF6343F40033BB60044ABB68D36003
:10136C0000BF1437BD4680BC704700BF00ED00E0E5
:10137C0080B400AF044BDB681B0A03F0070318466C
:10138C00BD4680BC704700BF00ED00E080B483B068
:10139C0000AF0346FB7197F90730002B0BDBFB7991
:1013AC0003F01F02064997F907305B09012000FA88
:1013BC0002F241F8232000BF0C37BD4680BC7047B9
:1013CC0000E100E080B483B000AF03463960FB71EC
:1013DC0097F90730002B0ADB3B68DAB20C4997F916
:1013EC0007301201D2B20B4483F800230AE03B68A9
:1013FC00DAB20849FB7903F00F03043B1201D2B2B5
:10140C000B441A7600BF0C37BD4680BC704700BF3A
:10141C0000E100E000ED00E080B489B000AFF860BE
:10142C00B9607A60FB6803F00703FB61FB69C3F1E9
:10143C000703042B28BF0423BB61FB690433062B71
:10144C0002D9FB69033B00E000237B614FF0FF32C4
:10145C00BB6902FA03F3DA43BB681A407B699A4012
:10146C004FF0FF317B6901FA03F3D9437B680B40E2
:10147C00134318462437BD4680BC704780B582B0F4
:10148C0000AF78607B68013BB3F1807F01D301230F
:10149C000FE00A4A7B68013B53600F214FF0FF308D
:1014AC00FFF790FF054B00229A60044B07221A604D
:1014BC00002318460837BD4680BD00BF10E000E091
:1014CC0080B582B000AF78607868FFF72DFF00BF61
:1014DC000837BD4680BD80B586B000AF0346B96005
:1014EC007A60FB7300237B61FFF742FF78617A68B7
:1014FC00B9687869FFF790FF024697F90F301146EB
:10150C001846FFF75FFF00BF1837BD4680BD80B59A
:10151C0082B000AF0346FB7197F907301846FFF70E
:10152C0035FF00BF0837BD4680BD80B582B000AF27
:10153C0078607868FFF7A2FF034618460837BD4667
:10154C0080BD000080B48BB000AF786039600023A0
:10155C007B6200233B6248E101227B6A02FA03F3BF
:10156C00FB613B681B68FA691340BB61BA69FB6994
:10157C009A4240F037813B685B68A34A93425ED045
:10158C00A14A934275D8A14A934258D09F4A93429C
:10159C006FD89F4A934252D09D4A934269D89D4A34
:1015AC0093424CD09B4A934263D89B4A934246D079
:1015BC00994A93425DD8122B2AD8122B59D801A2E2
:1015CC0052F823F04B1600082516000837160008B1
:1015DC00791600087F1600087F1600087F16000891
:1015EC007F1600087F1600087F1600087F1600087B
:1015FC007F1600087F1600087F1600087F1600086B
:10160C007F1600087F1600082D16000841160008EA
:10161C00824A934213D02CE03B68DB683B6229E0A2
:10162C003B68DB6804333B6224E03B68DB680833CF
:10163C003B621FE03B68DB680C333B621AE03B68A3
:10164C009B68002B02D104233B6213E03B689B6830
:10165C00012B05D108233B627B68FA691A6109E00A
:10166C0008233B627B68FA695A6103E000233B6202
:10167C0000E000BFBB69FF2B01D87B6801E07B68F1
:10168C0004337B61BB69FF2B02D87B6A9B0002E0B1
:10169C007B6A083B9B003B617B691A680F213B69A5
:1016AC0001FA03F3DB431A40396A3B6901FA03F38D
:1016BC001A437B691A603B685B6803F08053002B0C
:1016CC0000F09080564B9B69554A43F0010393619F
:1016DC00534B9B6903F00103BB60BB68514A7B6AA7
:1016EC009B08023352F82330FB607B6A03F0030340
:1016FC009B000F2202FA03F3DB43FA681340FB60F2
:10170C007B68494A93420DD07B68484A934207D084
:10171C007B68474A934201D1022304E0032302E091
:10172C00012300E000237A6A02F003029200934046
:10173C00FA681343FB603B497B6A9B080233FA68E7
:10174C0041F823203B685B6803F48013002B06D020
:10175C00384B9A683749BB6913438B6006E0354BAD
:10176C009A68BB69DB43334913408B603B685B6809
:10177C0003F40013002B06D02E4BDA682D49BB69FD
:10178C001343CB6006E02B4BDA68BB69DB4329497A
:10179C001340CB603B685B6803F40033002B06D02E
:1017AC00244B5A682349BB6913434B6006E0214B19
:1017BC005A68BB69DB431F4913404B603B685B684D
:1017CC0003F48033002B06D01A4B1A681949BB69F5
:1017DC0013430B6006E0174B1A68BB69DB431549D2
:1017EC0013400B607B6A01337B623B681A687B6A2F
:1017FC0022FA03F3002B7FF4AFAE00BF00BF2C37EF
:10180C00BD4680BC704700BF000032100000311094
:10181C000000221000002110000012100000111016
:10182C00001002400000014000080140000C014083
:10183C00001001400004014080B485B000AF786016
:10184C000B467B807B689A687B881340002B02D008
:10185C000123FB7301E00023FB73FB7B1846143759
:10186C00BD4680BC704780B483B000AF78600B4637
:10187C007B8013467B707B78002B03D07A887B6847
:10188C001A6103E07B881A047B681A6100BF0C376D
:10189C00BD4680BC704780B485B000AF78600B4605
:1018AC007B807B68DB68FB607A88FB6813401A04DA
:1018BC00FB68D9437B880B401A437B681A6100BFD5
:1018CC001437BD4680BC704780B586B000AF7860D9
:1018DC007B68002B01D101236CE27B681B6803F051
:1018EC000103002B00F08780924B5B6803F00C0324
:1018FC00042B0CD08F4B5B6803F00C03082B12D11C
:10190C008C4B5B6803F48033B3F5803F0BD1894B70
:10191C001B6803F40033002B6CD07B685B68002BD6
:10192C0068D1012346E27B685B68B3F5803F06D142
:10193C00804B1B687F4A43F4803313602EE07B6836
:10194C005B68002B0CD17B4B1B687A4A23F48033E9
:10195C001360784B1B68774A23F4802313601DE0D7
:10196C007B685B68B3F5A02F0CD1724B1B68714A76
:10197C0043F4802313606F4B1B686E4A43F480332F
:10198C0013600BE06B4B1B686A4A23F480331360C3
:10199C00684B1B68674A23F4802313607B685B6881
:1019AC00002B13D0FFF7B6FC386108E0FFF7B2FC50
:1019BC0002463B69D31A642B01D90323FAE15D4B30
:1019CC001B6803F40033002BF0D014E0FFF7A2FCEB
:1019DC00386108E0FFF79EFC02463B69D31A642B82
:1019EC0001D90323E6E1534B1B6803F40033002BAE
:1019FC00F0D100E000BF7B681B6803F00203002BF2
:101A0C0063D04C4B5B6803F00C03002B0BD0494BA1
:101A1C005B6803F00C03082B1CD1464B5B6803F48A
:101A2C008033002B16D1434B1B6803F00203002BB1
:101A3C0005D07B681B69012B01D00123BAE13D4B1A
:101A4C001B6823F0F8027B685B69DB0039491343A0
:101A5C000B603AE07B681B69002B20D0364B0122CF
:101A6C001A60FFF757FC386108E0FFF753FC024699
:101A7C003B69D31A022B01D903239BE12D4B1B6825
:101A8C0003F00203002BF0D02A4B1B6823F0F80262
:101A9C007B685B69DB00274913430B6015E0264B21
:101AAC0000221A60FFF736FC386108E0FFF732FCC1
:101ABC0002463B69D31A022B01D903237AE11D4B51
:101ACC001B6803F00203002BF0D17B681B6803F04A
:101ADC000803002B3AD07B689B69002B19D0174B5D
:101AEC0001221A60FFF716FC386108E0FFF712FCC0
:101AFC0002463B69D31A022B01D903235AE10D4B41
:101B0C005B6A03F00203002BF0D0012000F09AFA7C
:101B1C001CE00A4B00221A60FFF7FCFB38610FE057
:101B2C00FFF7F8FB02463B69D31A022B08D90323B3
:101B3C0040E100BF001002400000424280044242DB
:101B4C009E4B5B6A03F00203002BE9D17B681B6898
:101B5C0003F00403002B00F0A6800023FB75974BC9
:101B6C00DB6903F08053002B0DD1944BDB69934A56
:101B7C0043F08053D361914BDB6903F08053BB601E
:101B8C00BB680123FB758E4B1B6803F48073002B21
:101B9C0018D18B4B1B688A4A43F480731360FFF790
:101BAC00B9FB386108E0FFF7B5FB02463B69D31A75
:101BBC00642B01D90323FDE0814B1B6803F4807374
:101BCC00002BF0D07B68DB68012B06D17B4B1B6AAA
:101BDC007A4A43F0010313622DE07B68DB68002B2B
:101BEC000CD1764B1B6A754A23F001031362734BBD
:101BFC001B6A724A23F0040313621CE07B68DB68E7
:101C0C00052B0CD16D4B1B6A6C4A43F00403136219
:101C1C006A4B1B6A694A43F0010313620BE0674B82
:101C2C001B6A664A23F001031362644B1B6A634A06
:101C3C0023F0040313627B68DB68002B15D0FFF7DD
:101C4C0069FB38610AE0FFF765FB02463B69D31A72
:101C5C0041F28832934201D90323ABE0574B1B6A04
:101C6C0003F00203002BEED014E0FFF753FB3861B6
:101C7C000AE0FFF74FFB02463B69D31A41F2883268
:101C8C00934201D9032395E04C4B1B6A03F00203EA
:101C9C00002BEED1FB7D012B05D1484BDB69474A6C
:101CAC0023F08053D3617B68DB69002B00F08180CB
:101CBC00424B5B6803F00C03082B61D07B68DB693B
:101CCC00022B46D13F4B00221A60FFF723FB3861F1
:101CDC0008E0FFF71FFB02463B69D31A022B01D920
:101CEC00032367E0354B1B6803F00073002BF0D126
:101CFC007B681B6AB3F5803F08D1304B5B6823F4DB
:101D0C0000327B689B682D4913434B602B4B5B68FF
:101D1C0023F474127B68196A7B685B6A0B4327494E
:101D2C0013434B60274B01221A60FFF7F3FA38611B
:101D3C0008E0FFF7EFFA02463B69D31A022B01D9F0
:101D4C00032337E01D4B1B6803F00073002BF0D00E
:101D5C002FE01C4B00221A60FFF7DCFA386108E018
:101D6C00FFF7D8FA02463B69D31A022B01D9032399
:101D7C0020E0124B1B6803F00073002BF0D118E02D
:101D8C007B68DB69012B01D1012313E00B4B5B68F2
:101D9C00FB60FB6803F480327B681B6A9A4206D1B5
:101DAC00FB6803F470127B685B6A9A4201D00123D2
:101DBC0000E0002318461837BD4680BD00100240D5
:101DCC00007000406000424280B584B000AF786083
:101DDC0039607B68002B01D10123D0E06A4B1B6872
:101DEC0003F007033A689A4210D9674B1B6823F03B
:101DFC00070265493B6813430B60634B1B6803F098
:101E0C0007033A689A4201D00123B8E07B681B684B
:101E1C0003F00203002B20D07B681B6803F0040343
:101E2C00002B05D0594B5B68584A43F4E063536070
:101E3C007B681B6803F00803002B05D0534B5B68D1
:101E4C00524A43F460535360504B5B6823F0F002EA
:101E5C007B689B684D4913434B607B681B6803F0A0
:101E6C000103002B40D07B685B68012B07D1474BEB
:101E7C001B6803F40033002B15D101237FE07B6832
:101E8C005B68022B07D1414B1B6803F00073002BDE
:101E9C0009D1012373E03D4B1B6803F00203002BB7
:101EAC0001D101236BE0394B5B6823F003027B68A3
:101EBC005B68364913434B60FFF72CFAF8600AE075
:101ECC00FFF728FA0246FB68D31A41F28832934294
:101EDC0001D9032353E02D4B5B6803F00C027B68A4
:101EEC005B689B009A42EBD1274B1B6803F00703FE
:101EFC003A689A4210D2244B1B6823F007022249FD
:101F0C003B6813430B60204B1B6803F007033A68D4
:101F1C009A4201D0012332E07B681B6803F0040372
:101F2C00002B08D0194B5B6823F4E0627B68DB68FC
:101F3C00164913434B607B681B6803F00803002BA6
:101F4C0009D0124B5B6823F460527B681B69DB0081
:101F5C000E4913434B6000F021F802460B4B5B68B3
:101F6C001B0903F00F030A49CB5C22FA03F3094A5D
:101F7C001360094B1B681846FFF78AF900231846B3
:101F8C001037BD4680BD00BF00200240001002404B
:101F9C00B4280008400000206000002080B487B006
:101FAC0000AF0023FB600023BB6000237B61002398
:101FBC007B6000233B611E4B5B68FB60FB6803F09E
:101FCC000C03042B02D0082B03D027E0194B3B61E8
:101FDC0027E0FB689B0C03F00F03174AD35C7B6074
:101FEC00FB6803F48033002B10D0114B5B685B0C47
:101FFC0003F00103114AD35CBB607B680D4A02FB02
:10200C0003F2BB68B2FBF3F37B6104E07B680C4A20
:10201C0002FB03F37B617B693B6102E0054B3B6197
:10202C0000BF3B6918461C37BD4680BC704700BFDB
:10203C000010024000127A00C4280008D4280008BE
:10204C0000093D0080B485B000AF78600A4B1B6876
:10205C000A4AA2FB03235B0A7A6802FB03F3FB60C8
:10206C0000BFFB685A1EFA60002BF9D100BF00BFFD
:10207C001437BD4680BC704740000020D34D621021
:10208C0080B582B000AF78607B68002B01D1012352
:10209C0041E07B6893F83D30DBB2002B06D17B68C6
:1020AC00002283F83C207868FEF748FF7B68022208
:1020BC0083F83D207B681A687B6804331946104608
:1020CC0000F056FA7B68012283F846207B680122D7
:1020DC0083F83E207B68012283F83F207B68012235
:1020EC0083F840207B68012283F841207B68012221
:1020FC0083F842207B68012283F843207B6801220D
:10210C0083F844207B68012283F845207B680122F8
:10211C0083F83D20002318460837BD4680BD0000DB
:10212C0080B485B000AF78607B6893F83D30DBB24B
:10213C00012B01D0012335E07B68022283F83D207E
:10214C007B681B68DA687B681B6842F00102DA6006
:10215C007B681B68164A934209D07B681B68B3F1F5
:10216C00804F04D07B681B68124A934211D17B6864
:10217C001B689B6803F00703FB60FB68062B10D001
:10218C007B681B681A687B681B6842F001021A6046
:10219C0007E07B681B681A687B681B6842F00102C9
:1021AC001A60002318461437BD4680BC704700BF28
:1021BC00002C01400004004080B584B000AF786072
:1021CC007B681B68DB68FB607B681B681B69BB60FA
:1021DC00BB6803F00203002B20D0FB6803F0020362
:1021EC00002B1BD07B681B686FF002021A617B68A6
:1021FC0001221A777B681B689B6903F00303002B91
:10220C0003D0786800F098F905E0786800F08BF955
:10221C00786800F09AF97B6800221A77BB6803F0A3
:10222C000403002B20D0FB6803F00403002B1BD00D
:10223C007B681B686FF004021A617B6802221A77B4
:10224C007B681B689B6903F44073002B03D0786890
:10225C0000F072F905E0786800F065F9786800F034
:10226C0074F97B6800221A77BB6803F00803002B13
:10227C0020D0FB6803F00803002B1BD07B681B6885
:10228C006FF008021A617B6804221A777B681B685E
:10229C00DB6903F00303002B03D0786800F04CF9E2
:1022AC0005E0786800F03FF9786800F04EF97B683B
:1022BC0000221A77BB6803F01003002B20D0FB68B8
:1022CC0003F01003002B1BD07B681B686FF010020F
:1022DC001A617B6808221A777B681B68DB6903F438
:1022EC004073002B03D0786800F026F905E078687D
:1022FC0000F019F9786800F028F97B6800221A7749
:10230C00BB6803F00103002B0CD0FB6803F0010346
:10231C00002B07D07B681B686FF001021A6178688C
:10232C00FEF768FFBB6803F08003002B0CD0FB6842
:10233C0003F08003002B07D07B681B686FF08002D2
:10234C001A61786800F06FFABB6803F04003002B49
:10235C000CD0FB6803F04003002B07D07B681B6894
:10236C006FF040021A61786800F0F8F8BB6803F06F
:10237C002003002B0CD0FB6803F02003002B07D0AC
:10238C007B681B686FF020021A61786800F042FAD3
:10239C0000BF1037BD4680BD80B584B000AF7860FB
:1023AC0039600023FB737B6893F83C30012B01D11F
:1023BC000223B4E07B68012283F83C207B68022274
:1023CC0083F83D207B681B689B68BB60BB6823F06F
:1023DC007703BB60BB6823F47F43BB607B681B68DF
:1023EC00BA689A603B681B68B3F5005F3ED0B3F5E2
:1023FC00005F00F28780B3F5805F00F08680B3F554
:10240C00805F7FD8702B1AD0702B7BD8602B50D06C
:10241C00602B77D8502B3CD0502B73D8402B58D0F6
:10242C00402B6FD8302B64D0302B6BD8202B60D046
:10243C00202B67D8002B5CD0102B5AD062E07B6825
:10244C0018683B6899683B685A683B68DB6800F021
:10245C006AF97B681B689B68BB60BB6843F07703B9
:10246C00BB607B681B68BA689A604FE07B68186831
:10247C003B6899683B685A683B68DB6800F053F925
:10248C007B681B689A687B681B6842F480429A6080
:10249C003CE07B6818683B6859683B68DB681A4607
:1024AC0000F0CAF87B681B685021184600F021F92F
:1024BC002CE07B6818683B6859683B68DB681A46F7
:1024CC0000F0E8F87B681B686021184600F011F9F1
:1024DC001CE07B6818683B6859683B68DB681A46E7
:1024EC0000F0AAF87B681B684021184600F001F93F
:1024FC000CE07B681A683B681B681946104600F0B4
:10250C00F8F803E00123FB7300E000BF7B680122B5
:10251C0083F83D207B68002283F83C20FB7B184627
:10252C001037BD4680BD80B483B000AF786000BF6B
:10253C000C37BD4680BC704780B483B000AF786068
:10254C0000BF0C37BD4680BC704780B483B000AF71
:10255C00786000BF0C37BD4680BC704780B483B038
:10256C0000AF786000BF0C37BD4680BC70470000E0
:10257C0080B485B000AF786039607B681B68FB6005
:10258C007B682B4A934207D07B68B3F1804F03D012
:10259C007B68284A934208D1FB6823F07003FB60E8
:1025AC003B685B68FA681343FB607B68204A934284
:1025BC0007D07B68B3F1804F03D07B681D4A9342F0
:1025CC0008D1FB6823F44073FB603B68DB68FA6856
:1025DC001343FB60FB6823F080023B685B69134389
:1025EC00FB607B68FA681A603B689A687B68DA6201
:1025FC003B681A687B689A627B680D4A934203D1E8
:10260C003B681A697B681A637B6801225A617B6894
:10261C001B6903F00103002B05D07B681B6923F0B9
:10262C0001027B681A6100BF1437BD4680BC70473D
:10263C00002C01400004004080B487B000AFF8606B
:10264C00B9607A60FB681B6A7B61FB681B6A23F0CC
:10265C000102FB681A62FB689B693B613B6923F0D2
:10266C00F0033B617B681B013A6913433B617B6957
:10267C0023F00A037B617A69BB6813437B61FB68B7
:10268C003A699A61FB687A691A6200BF1C37BD46C9
:10269C0080BC704780B487B000AFF860B9607A60D6
:1026AC00FB681B6A7B61FB681B6A23F01002FB68EA
:1026BC001A62FB689B693B613B6923F470433B6185
:1026CC007B681B033A6913433B617B6923F0A003CE
:1026DC007B61BB681B017A6913437B61FB683A69B8
:1026EC009A61FB687A691A6200BF1C37BD4680BCD0
:1026FC00704780B485B000AF786039607B689B68A8
:10270C00FB60FB6823F07003FB603A68FB681343C3
:10271C0043F00703FB607B68FA689A6000BF1437CC
:10272C00BD4680BC704780B487B000AFF860B9601C
:10273C007A603B60FB689B687B617B6923F47F4319
:10274C007B613B681A027B681A43BB6813437A6946
:10275C0013437B61FB687A699A6000BF1C37BD46E6
:10276C0080BC704780B485B000AF786039607B68FE
:10277C0093F83C30012B01D1022341E07B6801220C
:10278C0083F83C207B68022283F83D207B681B6821
:10279C005B68FB607B681B689B68BB60FB6823F015
:1027AC007003FB603B681B68FA681343FB607B6833
:1027BC001B68FA685A607B681B68144A934209D0FC
:1027CC007B681B68B3F1804F04D07B681B68104A90
:1027DC0093420CD1BB6823F08003BB603B685B6801
:1027EC00BA681343BB607B681B68BA689A607B68E5
:1027FC00012283F83D207B68002283F83C200023D3
:10280C0018461437BD4680BC704700BF002C0140F1
:10281C000004004080B483B000AF786000BF0C3778
:10282C00BD4680BC704780B483B000AF786000BFF9
:10283C000C37BD4680BC704770B500260C4D0D4C56
:10284C00641BA410A64209D100F022F800260A4D00
:10285C000A4C641BA410A64205D170BD55F8043B6C
:10286C0098470136EEE755F8043B98470136F2E7F6
:10287C00D8280008D8280008D8280008DC28000828
:10288C0003460244934200D1704703F8011BF9E759
:10289C00F8B500BFF8BC08BC9E467047F8B500BF41
:0828AC00F8BC08BC9E46704711
:1028B40000000000000000000102030406070809EC
:1028C40002030405060708090A0B0C0D0E0F10106D
:0428D40001020000FD
:0428D80031010008C2
:0428DC000D010008E2
:1028E00001000000050000000200000003000000DD
:1028F000010000000100000001000000C0F9A4B0C8
:10290000999282F88090000001010100010101000C
:10291000010101000008000000100000002000007C
:1029200000127A000A00000001000000010000000F
:102930000100000001000000010000000100000093
:0829400010000000010000007E
:0400000508001225B8
:00000001FF
